{
  "contractName": "VotingContract",
  "abi": [
    {
      "anonymous": false,
      "inputs": [
        {
          "indexed": true,
          "internalType": "string",
          "name": "electionId",
          "type": "string"
        },
        {
          "indexed": false,
          "internalType": "string",
          "name": "title",
          "type": "string"
        },
        {
          "indexed": false,
          "internalType": "address",
          "name": "creator",
          "type": "address"
        }
      ],
      "name": "ElectionCreated",
      "type": "event"
    },
    {
      "anonymous": false,
      "inputs": [
        {
          "indexed": true,
          "internalType": "string",
          "name": "electionId",
          "type": "string"
        },
        {
          "indexed": false,
          "internalType": "uint256",
          "name": "totalVotes",
          "type": "uint256"
        }
      ],
      "name": "ElectionEnded",
      "type": "event"
    },
    {
      "anonymous": false,
      "inputs": [
        {
          "indexed": true,
          "internalType": "string",
          "name": "electionId",
          "type": "string"
        }
      ],
      "name": "ResultsPublished",
      "type": "event"
    },
    {
      "anonymous": false,
      "inputs": [
        {
          "indexed": true,
          "internalType": "string",
          "name": "electionId",
          "type": "string"
        },
        {
          "indexed": true,
          "internalType": "bytes32",
          "name": "voteHash",
          "type": "bytes32"
        },
        {
          "indexed": false,
          "internalType": "address",
          "name": "voter",
          "type": "address"
        }
      ],
      "name": "VoteCast",
      "type": "event"
    },
    {
      "anonymous": false,
      "inputs": [
        {
          "indexed": true,
          "internalType": "bytes32",
          "name": "voteHash",
          "type": "bytes32"
        },
        {
          "indexed": false,
          "internalType": "bool",
          "name": "isValid",
          "type": "bool"
        }
      ],
      "name": "VoteVerified",
      "type": "event"
    },
    {
      "inputs": [
        {
          "internalType": "string",
          "name": "",
          "type": "string"
        }
      ],
      "name": "elections",
      "outputs": [
        {
          "internalType": "string",
          "name": "electionId",
          "type": "string"
        },
        {
          "internalType": "string",
          "name": "title",
          "type": "string"
        },
        {
          "internalType": "uint256",
          "name": "startTime",
          "type": "uint256"
        },
        {
          "internalType": "uint256",
          "name": "endTime",
          "type": "uint256"
        },
        {
          "internalType": "bool",
          "name": "isActive",
          "type": "bool"
        },
        {
          "internalType": "bool",
          "name": "resultsPublished",
          "type": "bool"
        },
        {
          "internalType": "uint256",
          "name": "totalVotes",
          "type": "uint256"
        },
        {
          "internalType": "address",
          "name": "creator",
          "type": "address"
        }
      ],
      "stateMutability": "view",
      "type": "function",
      "constant": true
    },
    {
      "inputs": [
        {
          "internalType": "address",
          "name": "",
          "type": "address"
        }
      ],
      "name": "voterVoteCount",
      "outputs": [
        {
          "internalType": "uint256",
          "name": "",
          "type": "uint256"
        }
      ],
      "stateMutability": "view",
      "type": "function",
      "constant": true
    },
    {
      "inputs": [
        {
          "internalType": "bytes32",
          "name": "",
          "type": "bytes32"
        }
      ],
      "name": "votes",
      "outputs": [
        {
          "internalType": "string",
          "name": "electionId",
          "type": "string"
        },
        {
          "internalType": "bytes",
          "name": "encryptedVote",
          "type": "bytes"
        },
        {
          "internalType": "bytes32",
          "name": "voteHash",
          "type": "bytes32"
        },
        {
          "internalType": "uint256",
          "name": "timestamp",
          "type": "uint256"
        },
        {
          "internalType": "address",
          "name": "voter",
          "type": "address"
        },
        {
          "internalType": "bool",
          "name": "isValid",
          "type": "bool"
        }
      ],
      "stateMutability": "view",
      "type": "function",
      "constant": true
    },
    {
      "inputs": [
        {
          "internalType": "string",
          "name": "electionId",
          "type": "string"
        },
        {
          "internalType": "string",
          "name": "title",
          "type": "string"
        },
        {
          "internalType": "uint256",
          "name": "startTime",
          "type": "uint256"
        },
        {
          "internalType": "uint256",
          "name": "endTime",
          "type": "uint256"
        }
      ],
      "name": "createElection",
      "outputs": [],
      "stateMutability": "nonpayable",
      "type": "function"
    },
    {
      "inputs": [
        {
          "internalType": "string",
          "name": "electionId",
          "type": "string"
        },
        {
          "internalType": "bytes",
          "name": "encryptedVote",
          "type": "bytes"
        },
        {
          "internalType": "bytes32",
          "name": "voteHash",
          "type": "bytes32"
        }
      ],
      "name": "castVote",
      "outputs": [],
      "stateMutability": "nonpayable",
      "type": "function"
    },
    {
      "inputs": [
        {
          "internalType": "bytes32",
          "name": "voteHash",
          "type": "bytes32"
        },
        {
          "internalType": "bool",
          "name": "isValid",
          "type": "bool"
        }
      ],
      "name": "verifyVote",
      "outputs": [],
      "stateMutability": "nonpayable",
      "type": "function"
    },
    {
      "inputs": [
        {
          "internalType": "string",
          "name": "electionId",
          "type": "string"
        }
      ],
      "name": "endElection",
      "outputs": [],
      "stateMutability": "nonpayable",
      "type": "function"
    },
    {
      "inputs": [
        {
          "internalType": "string",
          "name": "electionId",
          "type": "string"
        }
      ],
      "name": "publishResults",
      "outputs": [],
      "stateMutability": "nonpayable",
      "type": "function"
    },
    {
      "inputs": [
        {
          "internalType": "string",
          "name": "electionId",
          "type": "string"
        },
        {
          "internalType": "address",
          "name": "voter",
          "type": "address"
        }
      ],
      "name": "hasVoted",
      "outputs": [
        {
          "internalType": "bool",
          "name": "hasVoted_",
          "type": "bool"
        }
      ],
      "stateMutability": "view",
      "type": "function",
      "constant": true
    },
    {
      "inputs": [
        {
          "internalType": "string",
          "name": "electionId",
          "type": "string"
        }
      ],
      "name": "getElection",
      "outputs": [
        {
          "internalType": "string",
          "name": "id_",
          "type": "string"
        },
        {
          "internalType": "string",
          "name": "title_",
          "type": "string"
        },
        {
          "internalType": "uint256",
          "name": "startTime_",
          "type": "uint256"
        },
        {
          "internalType": "uint256",
          "name": "endTime_",
          "type": "uint256"
        },
        {
          "internalType": "bool",
          "name": "isActive_",
          "type": "bool"
        },
        {
          "internalType": "uint256",
          "name": "totalVotes_",
          "type": "uint256"
        },
        {
          "internalType": "address",
          "name": "creator_",
          "type": "address"
        }
      ],
      "stateMutability": "view",
      "type": "function",
      "constant": true
    },
    {
      "inputs": [
        {
          "internalType": "bytes32",
          "name": "voteHash",
          "type": "bytes32"
        }
      ],
      "name": "getVote",
      "outputs": [
        {
          "internalType": "string",
          "name": "electionId_",
          "type": "string"
        },
        {
          "internalType": "uint256",
          "name": "timestamp_",
          "type": "uint256"
        },
        {
          "internalType": "address",
          "name": "voter_",
          "type": "address"
        },
        {
          "internalType": "bool",
          "name": "isValid_",
          "type": "bool"
        }
      ],
      "stateMutability": "view",
      "type": "function",
      "constant": true
    },
    {
      "inputs": [
        {
          "internalType": "address",
          "name": "voter",
          "type": "address"
        }
      ],
      "name": "getVoterVoteCount",
      "outputs": [
        {
          "internalType": "uint256",
          "name": "",
          "type": "uint256"
        }
      ],
      "stateMutability": "view",
      "type": "function",
      "constant": true
    },
    {
      "inputs": [
        {
          "internalType": "bytes32",
          "name": "voteHash",
          "type": "bytes32"
        }
      ],
      "name": "voteHashExists",
      "outputs": [
        {
          "internalType": "bool",
          "name": "",
          "type": "bool"
        }
      ],
      "stateMutability": "view",
      "type": "function",
      "constant": true
    },
    {
      "inputs": [
        {
          "internalType": "string",
          "name": "electionId",
          "type": "string"
        }
      ],
      "name": "pauseElection",
      "outputs": [],
      "stateMutability": "nonpayable",
      "type": "function"
    },
    {
      "inputs": [
        {
          "internalType": "string",
          "name": "electionId",
          "type": "string"
        }
      ],
      "name": "resumeElection",
      "outputs": [],
      "stateMutability": "nonpayable",
      "type": "function"
    }
  ],
  "bytecode": "0x608060405234801561001057600080fd5b50612d9b806100206000396000f3fe608060405234801561001057600080fd5b50600436106100f55760003560e01c80634a3ccc96116100975780637ad36e84116100665780637ad36e84146102bb5780639af06cd9146102d7578063ccf82bb114610307578063fe43bc0714610337576100f5565b80634a3ccc9614610205578063515508691461023c578063515f66a71461026f578063613c1ed61461029f576100f5565b80632b38cd96116100d35780632b38cd961461016257806333b89d8b1461019757806340edb956146101b35780634771b573146101cf576100f5565b80630568df0e146100fa578063154bace9146101165780631741f8a214610146575b600080fd5b610114600480360381019061010f9190611e5e565b610353565b005b610130600480360381019061012b9190611e0c565b610416565b60405161013d9190612a6d565b60405180910390f35b610160600480360381019061015b9190611e9a565b61042e565b005b61017c60048036038101906101779190611e35565b61066c565b60405161018e96959493929190612669565b60405180910390f35b6101b160048036038101906101ac9190611e9a565b6107e5565b005b6101cd60048036038101906101c89190611e9a565b61098e565b005b6101e960048036038101906101e49190611e9a565b610b7f565b6040516101fc9796959493929190612764565b60405180910390f35b61021f600480360381019061021a9190611e9a565b610d90565b6040516102339897969594939291906126d8565b60405180910390f35b61025660048036038101906102519190611e35565b610f38565b60405161026694939291906127e1565b60405180910390f35b61028960048036038101906102849190611e35565b611078565b604051610296919061261e565b60405180910390f35b6102b960048036038101906102b49190611f2f565b61109a565b005b6102d560048036038101906102d09190611fae565b6115db565b005b6102f160048036038101906102ec9190611edb565b61188c565b6040516102fe919061261e565b60405180910390f35b610321600480360381019061031c9190611e0c565b611967565b60405161032e9190612a6d565b60405180910390f35b610351600480360381019061034c9190611e9a565b6119b0565b005b60006001600084815260200190815260200160002060030154116103ac576040517f08c379a00000000000000000000000000000000000000000000000000000000081526004016103a390612a2d565b60405180910390fd5b806001600084815260200190815260200160002060040160146101000a81548160ff021916908315150217905550817fc39a9f8123869a1d06798e0e4c4fc29a9b1033017c0820de8ec69ce46f782e738260405161040a919061261e565b60405180910390a25050565b60026020528060005260406000206000915090505481565b806000808260405161044091906125ec565b90815260200160405180910390206002015411610492576040517f08c379a0000000000000000000000000000000000000000000000000000000008152600401610489906128ad565b60405180910390fd5b813373ffffffffffffffffffffffffffffffffffffffff166000826040516104ba91906125ec565b908152602001604051809103902060060160009054906101000a900473ffffffffffffffffffffffffffffffffffffffff1673ffffffffffffffffffffffffffffffffffffffff1614610542576040517f08c379a00000000000000000000000000000000000000000000000000000000081526004016105399061294d565b60405180910390fd5b6000808460405161055391906125ec565b908152602001604051809103902090508060040160009054906101000a900460ff16156105b5576040517f08c379a00000000000000000000000000000000000000000000000000000000081526004016105ac9061298d565b60405180910390fd5b8060040160019054906101000a900460ff1615610607576040517f08c379a00000000000000000000000000000000000000000000000000000000081526004016105fe90612a0d565b60405180910390fd5b60018160040160016101000a81548160ff0219169083151502179055508360405161063291906125ec565b60405180910390207f5579ab8c775d1e7829925219f5e250ddff571750f63b6843e4f7cf9d07a90bfd60405160405180910390a250505050565b600160205280600052604060002060009150905080600001805461068f90612bf0565b80601f01602080910402602001604051908101604052809291908181526020018280546106bb90612bf0565b80156107085780601f106106dd57610100808354040283529160200191610708565b820191906000526020600020905b8154815290600101906020018083116106eb57829003601f168201915b50505050509080600101805461071d90612bf0565b80601f016020809104026020016040519081016040528092919081815260200182805461074990612bf0565b80156107965780601f1061076b57610100808354040283529160200191610796565b820191906000526020600020905b81548152906001019060200180831161077957829003601f168201915b5050505050908060020154908060030154908060040160009054906101000a900473ffffffffffffffffffffffffffffffffffffffff16908060040160149054906101000a900460ff16905086565b80600080826040516107f791906125ec565b90815260200160405180910390206002015411610849576040517f08c379a0000000000000000000000000000000000000000000000000000000008152600401610840906128ad565b60405180910390fd5b813373ffffffffffffffffffffffffffffffffffffffff1660008260405161087191906125ec565b908152602001604051809103902060060160009054906101000a900473ffffffffffffffffffffffffffffffffffffffff1673ffffffffffffffffffffffffffffffffffffffff16146108f9576040517f08c379a00000000000000000000000000000000000000000000000000000000081526004016108f09061294d565b60405180910390fd5b6000808460405161090a91906125ec565b908152602001604051809103902090508060040160009054906101000a900460ff1661096b576040517f08c379a0000000000000000000000000000000000000000000000000000000008152600401610962906129ed565b60405180910390fd5b60008160040160006101000a81548160ff02191690831515021790555050505050565b80600080826040516109a091906125ec565b908152602001604051809103902060020154116109f2576040517f08c379a00000000000000000000000000000000000000000000000000000000081526004016109e9906128ad565b60405180910390fd5b813373ffffffffffffffffffffffffffffffffffffffff16600082604051610a1a91906125ec565b908152602001604051809103902060060160009054906101000a900473ffffffffffffffffffffffffffffffffffffffff1673ffffffffffffffffffffffffffffffffffffffff1614610aa2576040517f08c379a0000000000000000000000000000000000000000000000000000000008152600401610a999061294d565b60405180910390fd5b60008084604051610ab391906125ec565b908152602001604051809103902090508060040160009054906101000a900460ff1615610b15576040517f08c379a0000000000000000000000000000000000000000000000000000000008152600401610b0c90612a4d565b60405180910390fd5b8060030154421115610b5c576040517f08c379a0000000000000000000000000000000000000000000000000000000008152600401610b539061282d565b60405180910390fd5b60018160040160006101000a81548160ff02191690831515021790555050505050565b60608060008060008060008760008082604051610b9c91906125ec565b90815260200160405180910390206002015411610bee576040517f08c379a0000000000000000000000000000000000000000000000000000000008152600401610be5906128ad565b60405180910390fd5b6000808a604051610bff91906125ec565b908152602001604051809103902090508060000181600101826002015483600301548460040160009054906101000a900460ff1685600501548660060160009054906101000a900473ffffffffffffffffffffffffffffffffffffffff16868054610c6990612bf0565b80601f0160208091040260200160405190810160405280929190818152602001828054610c9590612bf0565b8015610ce25780601f10610cb757610100808354040283529160200191610ce2565b820191906000526020600020905b815481529060010190602001808311610cc557829003601f168201915b50505050509650858054610cf590612bf0565b80601f0160208091040260200160405190810160405280929190818152602001828054610d2190612bf0565b8015610d6e5780601f10610d4357610100808354040283529160200191610d6e565b820191906000526020600020905b815481529060010190602001808311610d5157829003601f168201915b5050505050955098509850985098509850985098505050919395979092949650565b600081805160208101820180518482526020830160208501208183528095505050505050600091509050806000018054610dc990612bf0565b80601f0160208091040260200160405190810160405280929190818152602001828054610df590612bf0565b8015610e425780601f10610e1757610100808354040283529160200191610e42565b820191906000526020600020905b815481529060010190602001808311610e2557829003601f168201915b505050505090806001018054610e5790612bf0565b80601f0160208091040260200160405190810160405280929190818152602001828054610e8390612bf0565b8015610ed05780601f10610ea557610100808354040283529160200191610ed0565b820191906000526020600020905b815481529060010190602001808311610eb357829003601f168201915b5050505050908060020154908060030154908060040160009054906101000a900460ff16908060040160019054906101000a900460ff16908060050154908060060160009054906101000a900473ffffffffffffffffffffffffffffffffffffffff16905088565b60606000806000806001600087815260200190815260200160002090506000816003015411610f9c576040517f08c379a0000000000000000000000000000000000000000000000000000000008152600401610f9390612a2d565b60405180910390fd5b8060000181600301548260040160009054906101000a900473ffffffffffffffffffffffffffffffffffffffff168360040160149054906101000a900460ff16838054610fe890612bf0565b80601f016020809104026020016040519081016040528092919081815260200182805461101490612bf0565b80156110615780601f1061103657610100808354040283529160200191611061565b820191906000526020600020905b81548152906001019060200180831161104457829003601f168201915b505050505093509450945094509450509193509193565b6000806001600084815260200190815260200160002060030154119050919050565b82600080826040516110ac91906125ec565b908152602001604051809103902060020154116110fe576040517f08c379a00000000000000000000000000000000000000000000000000000000081526004016110f5906128ad565b60405180910390fd5b8360008160405161110f91906125ec565b908152602001604051809103902060040160009054906101000a900460ff1661116d576040517f08c379a0000000000000000000000000000000000000000000000000000000008152600401611164906129ed565b60405180910390fd5b60008160405161117d91906125ec565b9081526020016040518091039020600201544210156111d1576040517f08c379a00000000000000000000000000000000000000000000000000000000081526004016111c89061286d565b60405180910390fd5b6000816040516111e191906125ec565b908152602001604051809103902060030154421115611235576040517f08c379a000000000000000000000000000000000000000000000000000000000815260040161122c9061282d565b60405180910390fd5b6000808660405161124691906125ec565b908152602001604051809103902090508060070160003373ffffffffffffffffffffffffffffffffffffffff1673ffffffffffffffffffffffffffffffffffffffff16815260200190815260200160002060009054906101000a900460ff16156112e5576040517f08c379a00000000000000000000000000000000000000000000000000000000081526004016112dc9061292d565b60405180910390fd5b80600801600085815260200190815260200160002060009054906101000a900460ff1615611348576040517f08c379a000000000000000000000000000000000000000000000000000000000815260040161133f9061296d565b60405180910390fd5b600085511161138c576040517f08c379a00000000000000000000000000000000000000000000000000000000081526004016113839061284d565b60405180910390fd5b6000801b8414156113d2576040517f08c379a00000000000000000000000000000000000000000000000000000000081526004016113c99061288d565b60405180910390fd5b600060016000868152602001908152602001600020905086816000019080519060200190611401929190611bbf565b508581600101908051906020019061141a929190611c45565b50848160020181905550428160030181905550338160040160006101000a81548173ffffffffffffffffffffffffffffffffffffffff021916908373ffffffffffffffffffffffffffffffffffffffff16021790555060018160040160146101000a81548160ff02191690831515021790555060018260070160003373ffffffffffffffffffffffffffffffffffffffff1673ffffffffffffffffffffffffffffffffffffffff16815260200190815260200160002060006101000a81548160ff021916908315150217905550600182600801600087815260200190815260200160002060006101000a81548160ff02191690831515021790555081600501600081548092919061152a90612c22565b9190505550600260003373ffffffffffffffffffffffffffffffffffffffff1673ffffffffffffffffffffffffffffffffffffffff168152602001908152602001600020600081548092919061157f90612c22565b9190505550848760405161159391906125ec565b60405180910390207f39d5aae166b54c65c92e6a391ebfe2d34b81df19f4ba59579c665865e2d75cad336040516115ca9190612603565b60405180910390a350505050505050565b600084511161161f576040517f08c379a0000000000000000000000000000000000000000000000000000000008152600401611616906129ad565b60405180910390fd5b6000835111611663576040517f08c379a000000000000000000000000000000000000000000000000000000000815260040161165a906128cd565b60405180910390fd5b4282116116a5576040517f08c379a000000000000000000000000000000000000000000000000000000000815260040161169c9061290d565b60405180910390fd5b8181116116e7576040517f08c379a00000000000000000000000000000000000000000000000000000000081526004016116de906129cd565b60405180910390fd5b600080856040516116f891906125ec565b9081526020016040518091039020600201541461174a576040517f08c379a0000000000000000000000000000000000000000000000000000000008152600401611741906128ed565b60405180910390fd5b6000808560405161175b91906125ec565b9081526020016040518091039020905084816000019080519060200190611783929190611bbf565b508381600101908051906020019061179c929190611bbf565b5082816002018190555081816003018190555060018160040160006101000a81548160ff02191690831515021790555060008160040160016101000a81548160ff02191690831515021790555060008160050181905550338160060160006101000a81548173ffffffffffffffffffffffffffffffffffffffff021916908373ffffffffffffffffffffffffffffffffffffffff1602179055508460405161184491906125ec565b60405180910390207f8fa439cf7090296b73eb06da904a8b179d6e9a0074f0bb318209e3b961ce2d54853360405161187d929190612639565b60405180910390a25050505050565b600082600080826040516118a091906125ec565b908152602001604051809103902060020154116118f2576040517f08c379a00000000000000000000000000000000000000000000000000000000081526004016118e9906128ad565b60405180910390fd5b60008460405161190291906125ec565b908152602001604051809103902060070160008473ffffffffffffffffffffffffffffffffffffffff1673ffffffffffffffffffffffffffffffffffffffff16815260200190815260200160002060009054906101000a900460ff1691505092915050565b6000600260008373ffffffffffffffffffffffffffffffffffffffff1673ffffffffffffffffffffffffffffffffffffffff168152602001908152602001600020549050919050565b80600080826040516119c291906125ec565b90815260200160405180910390206002015411611a14576040517f08c379a0000000000000000000000000000000000000000000000000000000008152600401611a0b906128ad565b60405180910390fd5b813373ffffffffffffffffffffffffffffffffffffffff16600082604051611a3c91906125ec565b908152602001604051809103902060060160009054906101000a900473ffffffffffffffffffffffffffffffffffffffff1673ffffffffffffffffffffffffffffffffffffffff1614611ac4576040517f08c379a0000000000000000000000000000000000000000000000000000000008152600401611abb9061294d565b60405180910390fd5b82600081604051611ad591906125ec565b908152602001604051809103902060030154421115611b29576040517f08c379a0000000000000000000000000000000000000000000000000000000008152600401611b209061282d565b60405180910390fd5b60008085604051611b3a91906125ec565b9081526020016040518091039020905060008160040160006101000a81548160ff02191690831515021790555084604051611b7591906125ec565b60405180910390207f4d31db6748edbbd9e5b81d507a6477be9bddc93567dc5e6fac4e6bae81f27fa58260050154604051611bb09190612a6d565b60405180910390a25050505050565b828054611bcb90612bf0565b90600052602060002090601f016020900481019282611bed5760008555611c34565b82601f10611c0657805160ff1916838001178555611c34565b82800160010185558215611c34579182015b82811115611c33578251825591602001919060010190611c18565b5b509050611c419190611ccb565b5090565b828054611c5190612bf0565b90600052602060002090601f016020900481019282611c735760008555611cba565b82601f10611c8c57805160ff1916838001178555611cba565b82800160010185558215611cba579182015b82811115611cb9578251825591602001919060010190611c9e565b5b509050611cc79190611ccb565b5090565b5b80821115611ce4576000816000905550600101611ccc565b5090565b6000611cfb611cf684612ab9565b612a88565b905082815260208101848484011115611d1357600080fd5b611d1e848285612bae565b509392505050565b6000611d39611d3484612ae9565b612a88565b905082815260208101848484011115611d5157600080fd5b611d5c848285612bae565b509392505050565b600081359050611d7381612d09565b92915050565b600081359050611d8881612d20565b92915050565b600081359050611d9d81612d37565b92915050565b600082601f830112611db457600080fd5b8135611dc4848260208601611ce8565b91505092915050565b600082601f830112611dde57600080fd5b8135611dee848260208601611d26565b91505092915050565b600081359050611e0681612d4e565b92915050565b600060208284031215611e1e57600080fd5b6000611e2c84828501611d64565b91505092915050565b600060208284031215611e4757600080fd5b6000611e5584828501611d8e565b91505092915050565b60008060408385031215611e7157600080fd5b6000611e7f85828601611d8e565b9250506020611e9085828601611d79565b9150509250929050565b600060208284031215611eac57600080fd5b600082013567ffffffffffffffff811115611ec657600080fd5b611ed284828501611dcd565b91505092915050565b60008060408385031215611eee57600080fd5b600083013567ffffffffffffffff811115611f0857600080fd5b611f1485828601611dcd565b9250506020611f2585828601611d64565b9150509250929050565b600080600060608486031215611f4457600080fd5b600084013567ffffffffffffffff811115611f5e57600080fd5b611f6a86828701611dcd565b935050602084013567ffffffffffffffff811115611f8757600080fd5b611f9386828701611da3565b9250506040611fa486828701611d8e565b9150509250925092565b60008060008060808587031215611fc457600080fd5b600085013567ffffffffffffffff811115611fde57600080fd5b611fea87828801611dcd565b945050602085013567ffffffffffffffff81111561200757600080fd5b61201387828801611dcd565b935050604061202487828801611df7565b925050606061203587828801611df7565b91505092959194509250565b61204a81612b5c565b82525050565b61205981612b6e565b82525050565b61206881612b7a565b82525050565b600061207982612b19565b6120838185612b2f565b9350612093818560208601612bbd565b61209c81612cf8565b840191505092915050565b60006120b282612b24565b6120bc8185612b40565b93506120cc818560208601612bbd565b6120d581612cf8565b840191505092915050565b60006120eb82612b24565b6120f58185612b51565b9350612105818560208601612bbd565b80840191505092915050565b600061211e601283612b40565b91507f456c656374696f6e2068617320656e64656400000000000000000000000000006000830152602082019050919050565b600061215e601983612b40565b91507f566f746520646174612063616e6e6f7420626520656d707479000000000000006000830152602082019050919050565b600061219e601883612b40565b91507f456c656374696f6e20686173206e6f74207374617274656400000000000000006000830152602082019050919050565b60006121de601883612b40565b91507f566f746520686173682063616e6e6f74206265207a65726f00000000000000006000830152602082019050919050565b600061221e601783612b40565b91507f456c656374696f6e20646f6573206e6f742065786973740000000000000000006000830152602082019050919050565b600061225e601583612b40565b91507f5469746c652063616e6e6f7420626520656d70747900000000000000000000006000830152602082019050919050565b600061229e601783612b40565b91507f456c656374696f6e20616c7265616479206578697374730000000000000000006000830152602082019050919050565b60006122de602083612b40565b91507f53746172742074696d65206d75737420626520696e20746865206675747572656000830152602082019050919050565b600061231e601783612b40565b91507f566f7465722068617320616c726561647920766f7465640000000000000000006000830152602082019050919050565b600061235e602d83612b40565b91507f4f6e6c7920656c656374696f6e2063726561746f722063616e20706572666f7260008301527f6d207468697320616374696f6e000000000000000000000000000000000000006020830152604082019050919050565b60006123c4601883612b40565b91507f566f7465206861736820616c72656164792065786973747300000000000000006000830152602082019050919050565b6000612404601c83612b40565b91507f456c656374696f6e206d75737420626520656e646564206669727374000000006000830152602082019050919050565b6000612444601b83612b40565b91507f456c656374696f6e2049442063616e6e6f7420626520656d70747900000000006000830152602082019050919050565b6000612484602183612b40565b91507f456e642074696d65206d7573742062652061667465722073746172742074696d60008301527f65000000000000000000000000000000000000000000000000000000000000006020830152604082019050919050565b60006124ea601683612b40565b91507f456c656374696f6e206973206e6f7420616374697665000000000000000000006000830152602082019050919050565b600061252a601983612b40565b91507f526573756c747320616c7265616479207075626c6973686564000000000000006000830152602082019050919050565b600061256a601383612b40565b91507f566f746520646f6573206e6f74206578697374000000000000000000000000006000830152602082019050919050565b60006125aa601a83612b40565b91507f456c656374696f6e20697320616c7265616479206163746976650000000000006000830152602082019050919050565b6125e681612ba4565b82525050565b60006125f882846120e0565b915081905092915050565b60006020820190506126186000830184612041565b92915050565b60006020820190506126336000830184612050565b92915050565b6000604082019050818103600083015261265381856120a7565b90506126626020830184612041565b9392505050565b600060c082019050818103600083015261268381896120a7565b90508181036020830152612697818861206e565b90506126a6604083018761205f565b6126b360608301866125dd565b6126c06080830185612041565b6126cd60a0830184612050565b979650505050505050565b60006101008201905081810360008301526126f3818b6120a7565b90508181036020830152612707818a6120a7565b905061271660408301896125dd565b61272360608301886125dd565b6127306080830187612050565b61273d60a0830186612050565b61274a60c08301856125dd565b61275760e0830184612041565b9998505050505050505050565b600060e082019050818103600083015261277e818a6120a7565b9050818103602083015261279281896120a7565b90506127a160408301886125dd565b6127ae60608301876125dd565b6127bb6080830186612050565b6127c860a08301856125dd565b6127d560c0830184612041565b98975050505050505050565b600060808201905081810360008301526127fb81876120a7565b905061280a60208301866125dd565b6128176040830185612041565b6128246060830184612050565b95945050505050565b6000602082019050818103600083015261284681612111565b9050919050565b6000602082019050818103600083015261286681612151565b9050919050565b6000602082019050818103600083015261288681612191565b9050919050565b600060208201905081810360008301526128a6816121d1565b9050919050565b600060208201905081810360008301526128c681612211565b9050919050565b600060208201905081810360008301526128e681612251565b9050919050565b6000602082019050818103600083015261290681612291565b9050919050565b60006020820190508181036000830152612926816122d1565b9050919050565b6000602082019050818103600083015261294681612311565b9050919050565b6000602082019050818103600083015261296681612351565b9050919050565b60006020820190508181036000830152612986816123b7565b9050919050565b600060208201905081810360008301526129a6816123f7565b9050919050565b600060208201905081810360008301526129c681612437565b9050919050565b600060208201905081810360008301526129e681612477565b9050919050565b60006020820190508181036000830152612a06816124dd565b9050919050565b60006020820190508181036000830152612a268161251d565b9050919050565b60006020820190508181036000830152612a468161255d565b9050919050565b60006020820190508181036000830152612a668161259d565b9050919050565b6000602082019050612a8260008301846125dd565b92915050565b6000604051905081810181811067ffffffffffffffff82111715612aaf57612aae612cc9565b5b8060405250919050565b600067ffffffffffffffff821115612ad457612ad3612cc9565b5b601f19601f8301169050602081019050919050565b600067ffffffffffffffff821115612b0457612b03612cc9565b5b601f19601f8301169050602081019050919050565b600081519050919050565b600081519050919050565b600082825260208201905092915050565b600082825260208201905092915050565b600081905092915050565b6000612b6782612b84565b9050919050565b60008115159050919050565b6000819050919050565b600073ffffffffffffffffffffffffffffffffffffffff82169050919050565b6000819050919050565b82818337600083830152505050565b60005b83811015612bdb578082015181840152602081019050612bc0565b83811115612bea576000848401525b50505050565b60006002820490506001821680612c0857607f821691505b60208210811415612c1c57612c1b612c9a565b5b50919050565b6000612c2d82612ba4565b91507fffffffffffffffffffffffffffffffffffffffffffffffffffffffffffffffff821415612c6057612c5f612c6b565b5b600182019050919050565b7f4e487b7100000000000000000000000000000000000000000000000000000000600052601160045260246000fd5b7f4e487b7100000000000000000000000000000000000000000000000000000000600052602260045260246000fd5b7f4e487b7100000000000000000000000000000000000000000000000000000000600052604160045260246000fd5b6000601f19601f8301169050919050565b612d1281612b5c565b8114612d1d57600080fd5b50565b612d2981612b6e565b8114612d3457600080fd5b50565b612d4081612b7a565b8114612d4b57600080fd5b50565b612d5781612ba4565b8114612d6257600080fd5b5056fea264697066735822122088e2a904d8e6a89d64463425b1b28d80391d30c72ac44d298271d9a1c4237a2864736f6c63430008000033",
  "immutableReferences": {},
  "source": "// SPDX-License-Identifier: MIT\r\npragma solidity ^0.8.0;\r\n\r\n/**\r\n * @title E-Voting Smart Contract\r\n * @dev Secure voting contract with encryption support and fraud prevention\r\n */\r\ncontract VotingContract {\r\n    \r\n    struct Election {\r\n        string electionId;\r\n        string title;\r\n        uint256 startTime;\r\n        uint256 endTime;\r\n        bool isActive;\r\n        bool resultsPublished;\r\n        uint256 totalVotes;\r\n        address creator;\r\n        mapping(address => bool) hasVoted;\r\n        mapping(bytes32 => bool) voteHashes;\r\n    }\r\n    \r\n    struct Vote {\r\n        string electionId;\r\n        bytes encryptedVote;\r\n        bytes32 voteHash;\r\n        uint256 timestamp;\r\n        address voter;\r\n        bool isValid;\r\n    }\r\n    \r\n    // State variables\r\n    mapping(string => Election) public elections;\r\n    mapping(bytes32 => Vote) public votes;\r\n    mapping(address => uint256) public voterVoteCount;\r\n    \r\n    // Events\r\n    event ElectionCreated(string indexed electionId, string title, address creator);\r\n    event VoteCast(string indexed electionId, bytes32 indexed voteHash, address voter);\r\n    event VoteVerified(bytes32 indexed voteHash, bool isValid);\r\n    event ElectionEnded(string indexed electionId, uint256 totalVotes);\r\n    event ResultsPublished(string indexed electionId);\r\n    \r\n    // Modifiers\r\n    modifier onlyElectionCreator(string memory electionId) {\r\n        require(elections[electionId].creator == msg.sender, \"Only election creator can perform this action\");\r\n        _;\r\n    }\r\n    \r\n    modifier electionExists(string memory electionId) {\r\n        require(elections[electionId].startTime > 0, \"Election does not exist\");\r\n        _;\r\n    }\r\n    \r\n    modifier electionActive(string memory electionId) {\r\n        require(elections[electionId].isActive, \"Election is not active\");\r\n        require(block.timestamp >= elections[electionId].startTime, \"Election has not started\");\r\n        require(block.timestamp <= elections[electionId].endTime, \"Election has ended\");\r\n        _;\r\n    }\r\n    \r\n    modifier electionNotEnded(string memory electionId) {\r\n        require(block.timestamp <= elections[electionId].endTime, \"Election has ended\");\r\n        _;\r\n    }\r\n    \r\n    /**\r\n     * @dev Create a new election\r\n     * @param electionId Unique identifier for the election\r\n     * @param title Title of the election\r\n     * @param startTime Start time of the election\r\n     * @param endTime End time of the election\r\n     */\r\n    function createElection(\r\n        string memory electionId,\r\n        string memory title,\r\n        uint256 startTime,\r\n        uint256 endTime\r\n    ) public {\r\n        require(bytes(electionId).length > 0, \"Election ID cannot be empty\");\r\n        require(bytes(title).length > 0, \"Title cannot be empty\");\r\n        require(startTime > block.timestamp, \"Start time must be in the future\");\r\n        require(endTime > startTime, \"End time must be after start time\");\r\n        require(elections[electionId].startTime == 0, \"Election already exists\");\r\n        \r\n        Election storage election = elections[electionId];\r\n        election.electionId = electionId;\r\n        election.title = title;\r\n        election.startTime = startTime;\r\n        election.endTime = endTime;\r\n        election.isActive = true;\r\n        election.resultsPublished = false;\r\n        election.totalVotes = 0;\r\n        election.creator = msg.sender;\r\n        \r\n        emit ElectionCreated(electionId, title, msg.sender);\r\n    }\r\n    \r\n    /**\r\n     * @dev Cast a vote in an election\r\n     * @param electionId Election identifier\r\n     * @param encryptedVote Encrypted vote data\r\n     * @param voteHash Hash of the vote for verification\r\n     */\r\n    function castVote(\r\n        string memory electionId,\r\n        bytes memory encryptedVote,\r\n        bytes32 voteHash\r\n    ) public electionExists(electionId) electionActive(electionId) {\r\n        Election storage election = elections[electionId];\r\n        \r\n        // Check if voter has already voted\r\n        require(!election.hasVoted[msg.sender], \"Voter has already voted\");\r\n        \r\n        // Check if vote hash is unique\r\n        require(!election.voteHashes[voteHash], \"Vote hash already exists\");\r\n        \r\n        // Validate vote data\r\n        require(encryptedVote.length > 0, \"Vote data cannot be empty\");\r\n        require(voteHash != bytes32(0), \"Vote hash cannot be zero\");\r\n        \r\n        // Record the vote\r\n        Vote storage vote = votes[voteHash];\r\n        vote.electionId = electionId;\r\n        vote.encryptedVote = encryptedVote;\r\n        vote.voteHash = voteHash;\r\n        vote.timestamp = block.timestamp;\r\n        vote.voter = msg.sender;\r\n        vote.isValid = true;\r\n        \r\n        // Update election state\r\n        election.hasVoted[msg.sender] = true;\r\n        election.voteHashes[voteHash] = true;\r\n        election.totalVotes++;\r\n        \r\n        // Update voter statistics\r\n        voterVoteCount[msg.sender]++;\r\n        \r\n        emit VoteCast(electionId, voteHash, msg.sender);\r\n    }\r\n    \r\n    /**\r\n     * @dev Verify a vote's integrity\r\n     * @param voteHash Hash of the vote to verify\r\n     * @param isValid Whether the vote is valid\r\n     */\r\n    function verifyVote(bytes32 voteHash, bool isValid) public {\r\n        require(votes[voteHash].timestamp > 0, \"Vote does not exist\");\r\n        \r\n        votes[voteHash].isValid = isValid;\r\n        \r\n        emit VoteVerified(voteHash, isValid);\r\n    }\r\n    \r\n    /**\r\n     * @dev End an election\r\n     * @param electionId Election identifier\r\n     */\r\n    function endElection(string memory electionId) \r\n        public \r\n        electionExists(electionId) \r\n        onlyElectionCreator(electionId) \r\n        electionNotEnded(electionId) \r\n    {\r\n        Election storage election = elections[electionId];\r\n        election.isActive = false;\r\n        \r\n        emit ElectionEnded(electionId, election.totalVotes);\r\n    }\r\n    \r\n    /**\r\n     * @dev Publish election results\r\n     * @param electionId Election identifier\r\n     */\r\n    function publishResults(string memory electionId) \r\n        public \r\n        electionExists(electionId) \r\n        onlyElectionCreator(electionId) \r\n    {\r\n        Election storage election = elections[electionId];\r\n        require(!election.isActive, \"Election must be ended first\");\r\n        require(!election.resultsPublished, \"Results already published\");\r\n        \r\n        election.resultsPublished = true;\r\n        \r\n        emit ResultsPublished(electionId);\r\n    }\r\n    \r\n    /**\r\n     * @dev Check if a voter has voted in an election\r\n     * @param electionId Election identifier\r\n     * @param voter Address of the voter\r\n     * @return hasVoted_ True if voter has voted\r\n     */\r\n    function hasVoted(string memory electionId, address voter) \r\n        public \r\n        view \r\n        electionExists(electionId) \r\n        returns (bool hasVoted_) \r\n    {\r\n        return elections[electionId].hasVoted[voter];\r\n    }\r\n    \r\n    /**\r\n     * @dev Get election details\r\n     * @param electionId Election identifier\r\n     * @return id_ The election ID\r\n     * @return title_ The election title\r\n     * @return startTime_ The start time\r\n     * @return endTime_ The end time\r\n     * @return isActive_ Whether the election is active\r\n     * @return totalVotes_ Total number of votes cast\r\n     * @return creator_ Address of the election creator\r\n     */\r\n    function getElection(string memory electionId) \r\n        public \r\n        view \r\n        electionExists(electionId) \r\n        returns (\r\n            string memory id_,\r\n            string memory title_,\r\n            uint256 startTime_,\r\n            uint256 endTime_,\r\n            bool isActive_,\r\n            uint256 totalVotes_,\r\n            address creator_\r\n        ) \r\n    {\r\n        Election storage election = elections[electionId];\r\n        return (\r\n            election.electionId,\r\n            election.title,\r\n            election.startTime,\r\n            election.endTime,\r\n            election.isActive,\r\n            election.totalVotes,\r\n            election.creator\r\n        );\r\n    }\r\n    \r\n    /**\r\n     * @dev Get vote details\r\n     * @param voteHash Hash of the vote\r\n     * @return electionId_ The election ID\r\n     * @return timestamp_ Time when the vote was cast\r\n     * @return voter_ Address of the voter\r\n     * @return isValid_ Whether the vote is valid\r\n     */\r\n    function getVote(bytes32 voteHash) \r\n        public \r\n        view \r\n        returns (\r\n            string memory electionId_,\r\n            uint256 timestamp_,\r\n            address voter_,\r\n            bool isValid_\r\n        ) \r\n    {\r\n        Vote storage vote = votes[voteHash];\r\n        require(vote.timestamp > 0, \"Vote does not exist\");\r\n        \r\n        return (\r\n            vote.electionId,\r\n            vote.timestamp,\r\n            vote.voter,\r\n            vote.isValid\r\n        );\r\n    }\r\n    \r\n    /**\r\n     * @dev Get voter's vote count across all elections\r\n     * @param voter Address of the voter\r\n     * @return Total number of votes cast by the voter\r\n     */\r\n    function getVoterVoteCount(address voter) public view returns (uint256) {\r\n        return voterVoteCount[voter];\r\n    }\r\n    \r\n    /**\r\n     * @dev Check if a vote hash exists\r\n     * @param voteHash Hash to check\r\n     * @return True if vote hash exists\r\n     */\r\n    function voteHashExists(bytes32 voteHash) public view returns (bool) {\r\n        return votes[voteHash].timestamp > 0;\r\n    }\r\n    \r\n    /**\r\n     * @dev Emergency function to pause election (only creator)\r\n     * @param electionId Election identifier\r\n     */\r\n    function pauseElection(string memory electionId) \r\n        public \r\n        electionExists(electionId) \r\n        onlyElectionCreator(electionId) \r\n    {\r\n        Election storage election = elections[electionId];\r\n        require(election.isActive, \"Election is not active\");\r\n        \r\n        election.isActive = false;\r\n    }\r\n    \r\n    /**\r\n     * @dev Resume paused election (only creator)\r\n     * @param electionId Election identifier\r\n     */\r\n    function resumeElection(string memory electionId) \r\n        public \r\n        electionExists(electionId) \r\n        onlyElectionCreator(electionId) \r\n    {\r\n        Election storage election = elections[electionId];\r\n        require(!election.isActive, \"Election is already active\");\r\n        require(block.timestamp <= election.endTime, \"Election has ended\");\r\n        \r\n        election.isActive = true;\r\n    }\r\n} ",
  "sourcePath": "C:\\Users\\Joshua's WorkStation\\Desktop\\E-Voting System\\truffle\\contracts\\VotingContract.sol",
  "compiler": {
    "name": "solc",
    "version": "0.8.0+commit.c7dfd78e.Emscripten.clang"
  },
  "schemaVersion": "3.4.16",
  "updatedAt": "2025-06-19T23:17:04.154Z",
  "networkType": "ethereum",
  "devdoc": {
    "details": "Secure voting contract with encryption support and fraud prevention",
    "kind": "dev",
    "methods": {
      "castVote(string,bytes,bytes32)": {
        "details": "Cast a vote in an election",
        "params": {
          "electionId": "Election identifier",
          "encryptedVote": "Encrypted vote data",
          "voteHash": "Hash of the vote for verification"
        }
      },
      "createElection(string,string,uint256,uint256)": {
        "details": "Create a new election",
        "params": {
          "electionId": "Unique identifier for the election",
          "endTime": "End time of the election",
          "startTime": "Start time of the election",
          "title": "Title of the election"
        }
      },
      "endElection(string)": {
        "details": "End an election",
        "params": {
          "electionId": "Election identifier"
        }
      },
      "getElection(string)": {
        "details": "Get election details",
        "params": {
          "electionId": "Election identifier"
        },
        "returns": {
          "creator_": "Address of the election creator",
          "endTime_": "The end time",
          "id_": "The election ID",
          "isActive_": "Whether the election is active",
          "startTime_": "The start time",
          "title_": "The election title",
          "totalVotes_": "Total number of votes cast"
        }
      },
      "getVote(bytes32)": {
        "details": "Get vote details",
        "params": {
          "voteHash": "Hash of the vote"
        },
        "returns": {
          "electionId_": "The election ID",
          "isValid_": "Whether the vote is valid",
          "timestamp_": "Time when the vote was cast",
          "voter_": "Address of the voter"
        }
      },
      "getVoterVoteCount(address)": {
        "details": "Get voter's vote count across all elections",
        "params": {
          "voter": "Address of the voter"
        },
        "returns": {
          "_0": "Total number of votes cast by the voter"
        }
      },
      "hasVoted(string,address)": {
        "details": "Check if a voter has voted in an election",
        "params": {
          "electionId": "Election identifier",
          "voter": "Address of the voter"
        },
        "returns": {
          "hasVoted_": "True if voter has voted"
        }
      },
      "pauseElection(string)": {
        "details": "Emergency function to pause election (only creator)",
        "params": {
          "electionId": "Election identifier"
        }
      },
      "publishResults(string)": {
        "details": "Publish election results",
        "params": {
          "electionId": "Election identifier"
        }
      },
      "resumeElection(string)": {
        "details": "Resume paused election (only creator)",
        "params": {
          "electionId": "Election identifier"
        }
      },
      "verifyVote(bytes32,bool)": {
        "details": "Verify a vote's integrity",
        "params": {
          "isValid": "Whether the vote is valid",
          "voteHash": "Hash of the vote to verify"
        }
      },
      "voteHashExists(bytes32)": {
        "details": "Check if a vote hash exists",
        "params": {
          "voteHash": "Hash to check"
        },
        "returns": {
          "_0": "True if vote hash exists"
        }
      }
    },
    "title": "E-Voting Smart Contract",
    "version": 1
  },
  "userdoc": {
    "kind": "user",
    "methods": {},
    "version": 1
  }
}